:1000000075B0FF20800330800C2081033081030213
:100010000021020054208103308103020087020185
:100020003774FE7E07F5A0F59012019430802230DF
:10003000811F23F5A0F590120194DEF07E0630803A
:100040001030810D03F5A0F590120194DEF002004E
:100050002102000374FC7E06F5A0F5901201943095
:10006000802220811F23F5A0F590120194DEF07EFE
:100070000530801020810D03F5A0F590120194DE6B
:10008000F002005402000375A0DE7590DE1201AD8F
:1000900020804130813E75A0BD7590BD1201AD201C
:1000A000803230812F75A07B75907B1201AD20804E
:1000B0002330812075A0F77590F71201AD208014D0
:1000C00030811175A0EF7590EF1201AD20800530E1
:1000D0008102800302000375A0BD7590BD120194DA
:1000E00020805130814E75A0DE7590DE1201942083
:1000F000804230813F75A0EE7590EE120194208011
:100100003330813075A0F77590F712019420802468
:1001100030812175A0BD7590BD12019420801530ED
:10012000811275A0DE7590DE120194208006308168
:10013000030200870200037590FF74FE7E07F5A09E
:1001400012019420804B20814823F5A0120194DEF7
:10015000F275A0FF747F7E07F59012019420803124
:1001600020812E03F590120194DEF27E0723F59094
:10017000120194DEF87590FF747F7E06F5A01201DF
:080180009420800D20810A0388
:10018800F5A0120194DEF280A60200037F03C030BE
:10019800C03175305A753144D531FDD530FAD0317A
:1001A800D030DFEA227F03C030C0317530B47531FA
:0E01B80044D531FDD530FAD031D030DFEA2207
:00000001FF
