:020000002100DD
:1001000012010B1201261201342196D2B400C2B49E
:1001100078FBD8FED2B4782530B402D8FBD2D5789B
:100120006BD8FED2B42212010B74CC12015B741F87
:1001300012015B22D2B412010B20D5012274CC1221
:10014000015B744412015B1201D412010B74CC12D6
:10015000015B74BE12015B120173227A08C3C2B440
:100160007B06DBFE1392B47B17DBFED2B400DAEE23
:10017000D2B4227C0279297A08C3D30000C2B40029
:100180000000D2B47B07DBFEA2B47B17DBFE13DAE0
:10019000E8F719DCE222E529852926852825852826
:1001A00024A22F5011E525F4F525E526F404F526C3
:1001B000852629852528A24013A24113A24213A215
:1001C0004313400575270021CC752705F529120139
:1001D000D4020100E52975F00A8485F03575F00A2E
:1001E0008485F036F537780475A02179FAA2275076
:1001F00012780ED2A1E8F580C2A17440F5801202F7
:100200004D4113780ED2A1E8F580C2A17400F580AB
:1002100012024DE527900256937807D2A18880C23A
:0C022000A1F58012024DE53590026093BC
:10022C00780BD2A18880C2A1F58012024DE53690E0
:10023C00025693780DD2A18880C2A1F58012024D8E
:10024C00227D087EFADEFEDDFA223F065B4F666DEC
:10025C007D077F6FBF86DBCFE6EDFD87FFEF80FE6E
:00000001FF
