:020000002100DD
:1001000012010B1201261201342197D2B400C2B49D
:1001100078FFD8FED2B4782530B402D8FBD2D57897
:100120007FD8FED2B42212010B74CC12015C741F72
:1001300012015C22D2B412010B20D5012274CC1220
:10014000015C744412015C7BFFDBFE12010B74CC7A
:1001500012015C74BE12015C120174227A08C3C2DF
:10016000B47B05DBFE1392B47B2FDBFED2B400DA46
:10017000EED2B4227C0279297A08C3D30000C2B43B
:10018000000000D2B47B06DBFEA2B47B17DBFE13BB
:10019000DAE8F719DCE222E5298529268528258574
:1001A0002824A22F5011E525F4F525E526F404F5C1
:1001B00026852629852528A24013A24113A2421391
:1001C000A24313400575270021CD752705F529F5B4
:1001D00090020100E52975F00A8485F03575F00A72
:1001E0008485F036F537780475A02179FAA2275076
:1001F00012780ED2A1E8F580C2A17440F5801202F7
:100200004D4113780ED2A1E8F580C2A17400F580AB
:1002100012024DE527900256937807D2A18880C23A
:0B022000A1F58012024DE53590026050
:10022B0093780BD2A18880C2A1F58012024DE536DE
:10023B0090025693780DD2A18880C2A1F58012024C
:10024B004D227D087EFADEFEDDFA223F065B4F660D
:10025B006D7D077F6FBF86DBCFE6EDFD87FFEF8000
:01026B00FE94
:00000001FF
