:0C03560048554D49444954593A202000B4
:08036200022F0000023100002F
:10000300758920C28AC2ABD28E758DFD758BFDE4D6
:0D001300F587C29FD29ED29CD2ACD2AF2204
:0402AE008E188F19FE
:1002B200E4F51AF51B781C7C00FD7BFF7A03795666
:1002C200FE7F0C1200F6AE18AF197C007D0A1201F7
:1002D20035ED2430FBAE18AF197C007D0A120135D2
:1002E200EF2430F5258B26741C251BF8E66011F5EA
:1002F200993099FDC299051BE51B70EB051A80E741
:0103020022D8
:0100200022BD
:100303008B288A29892AAB2BAA2CA92D12011CFF21
:10031300AB28AA29A92A12011CFD6F60057E007F64
:100323000122ED60187401252AF52AE43529F529FF
:100333007401252DF52DE4352CF52C80C9E4FEFF41
:010343002297
:100344007F417E007590551200031202AE12002008
:0203540080FE29
:0300230002024C8A
:10024C00C0E0C0F0C083C082C0D075D000C000C078
:10025C0001C002C003C004C005C006C007C2AF3055
:10026C00982385992EC298AF2E7E001202AEE52EF1
:10027C00B45905759000800DE52EB44E057590FFB0
:10028C008003759055D2AFD007D006D005D004D0DE
:10029C0003D002D001D000D0D0D082D083D0F0D007
:0202AC00E0323E
:030000000201C03A
:0C01C000787FE4F6D8FD7581320202075A
:10002600E709F608DFFA8046E709F208DFFA803EBC
:1000360088828C83E709F0A3DFFA8032E309F608A9
:10004600DFFA8078E309F208DFFA807088828C8311
:10005600E309F0A3DFFA806489828A83E0A3F608C5
:10006600DFFA805889828A83E0A3F208DFFA804C9F
:1000760080D280FA80C680D4806980F28033801076
:1000860080A680EA809A80A880DA80E280CA8033DF
:1000960089828A83ECFAE493A3C8C582C8CCC58357
:1000A600CCF0A3C8C582C8CCC583CCDFE9DEE78027
:1000B6000D89828A83E493A3F608DFF9ECFAA9F0A6
:1000C600EDFB2289828A83ECFAE0A3C8C582C8CCFC
:1000D600C583CCF0A3C8C582C8CCC583CCDFEADE15
:1000E600E880DB89828A83E493A3F208DFF980CC77
:1000F60088F0EF60010E4E60C388F0ED2402B40470
:100106000050B9F582EB2402B4040050AF23234516
:06011600822390007673C5
:10011C00BB010689828A83E0225002E722BBFE02E1
:09012C00E32289828A83E4932214
:10013500C2D5EC30E709B2D5E4C39DFDE49CFCEEE5
:1001450030E715B2D5E4C39FFFE49EFE12016BC3F1
:10015500E49DFDE49CFC800312016B30D507C3E4EC
:060165009FFFE49EFE2254
:1001CC00020344E493A3F8E493A34003F68001F202
:1001DC0008DFF48029E493A3F85407240CC8C33334
:1001EC00C4540F4420C8834004F456800146F6DF03
:1001FC00E4800B0102040810204080900362E47E2E
:10020C00019360BCA3FF543F30E509541FFEE493F7
:10021C00A360010ECF54C025E060A840B8E493A3BE
:10022C00FAE493A3F8E493A3C8C582C8CAC583CAE9
:10023C00F0A3C8C582C8CAC583CADFE9DEE780BEA1
:01036A000092
:10016B00BC000BBE0029EF8DF084FFADF022E4CC78
:10017B00F875F008EF2FFFEE33FEEC33FCEE9DEC41
:10018B00984005FCEE9DFE0FD5F0E9E4CEFD22ED87
:10019B00F8F5F0EE8420D21CFEADF075F008EF2FD1
:1001AB00FFED33FD4007985006D5F0F222C398FDC2
:0501BB000FD5F0EA225F
:00000001FF
