:03000000020030CB
:100030007838120170120192780812017012019240
:100040007801120170120192780612017012019269
:10005000780C12017012019279487A017B03120127
:100060004E79657A017B0412014E796C7A017B0529
:1000700012014E796C7A017B0612014E796F7A017A
:100080007B0712014E792C7A017B0812014E7957B9
:100090007A017B0912014E796F7A017B0A12014EB7
:1000A00079727A017B0B12014E796C7A017B0C120A
:1000B000014E79647A017B0D12014E79217A017B20
:1000C0000E12014E79547A027B0112014E79687A40
:1000D000027B0212014E79617A027B0312014E7992
:1000E0006E7A027B0412014E796B7A027B05120153
:1000F0004E79207A027B0612014E79797A027B07CB
:1001000012014E796F7A027B0812014E79757A02DC
:100110007B0912014E792C7A027B0A12014E794634
:100120007A027B0B12014E79657A027B0C12014E2A
:10013000796E7A027B0D12014E79677A027B0E127C
:10014000014E79217A027B0F12014E020058DA0526
:10015000788002015778C0E82B14F8120170120160
:10016000622212017ED290C291D2A58980C2A522BC
:0E01700012017EC290C291D2A58880C2A52243
:10017E007580FFC290D291D2A57F02DFFEE580543A
:0D018E008070ED227E0F7D98DDFEDEFA22EE
:00000001FF
