:03000000020100FA
:0300030002020CEA
:1001000075815F758911C288D2AFD2A875A00075BC
:10011000900012033475A0FF7590FF12033474FE33
:100120007E07F5A0F59012033423F5A0F590120395
:1001300034DEF67E0603F5A0F590120334DEF67485
:10014000FC7E06F5A0F59012033423F5A0F590127D
:100150000334DEF67E0503F5A0F590120334DEF6D7
:1001600075A0DE7590DE12033475A0BD7590BD12CA
:10017000033475A07B75907B12033475A0F77590DE
:10018000F712033475A0EF7590EF12033475A0BD1C
:100190007590BD12033475A0DE7590DE12033475C0
:1001A000A0EE7590EE12033475A0F77590F7120368
:1001B0003475A0BD7590BD12033475A0DE7590DE58
:1001C0001203347590FF74FE7E07F5A012033423EA
:1001D000F5A0120334DEF875A0FF74FE7E07F590DB
:1001E00012033423F590120334DEF87E0703F590F2
:1001F000120334DEF87590FF747F7E07F5A01203BA
:100200003403F5A0120334DEF80201007590FF7587
:10021000A0FF8983C083C0E020800330800C208150
:100220000330810302023D02026120810330810319
:100230000202850202EBD0E0D083A9833274FE7EF5
:1002400007F5A0F59012033423F5A0F590120334BE
:10025000DEF67E0603F5A0F590120334DEF6020208
:090260003674FC7E06F5A0F59051
:1002690012033423F5A0F590120334DEF67E05035C
:10027900F5A0F590120334DEF602023675A0DE759C
:1002890090DE12033475A0BD7590BD12033475A0BC
:100299007B75907B12033475A0F77590F7120334C0
:1002A90075A0EF7590EF12033475A0BD7590BD125E
:1002B900033475A0DE7590DE12033475A0EE7590D7
:1002C900EE12033475A0F77590F712033475A0BDCB
:1002D9007590BD12033475A0DE7590DE12033402E9
:1002E90002367590FF74FE7E07F5A012033423F5DC
:1002F900A0120334DEF875A0FF74FE7E07F5901294
:10030900033423F590120334DEF87E0703F59012C7
:100319000334DEF87590FF747F7E07F5A01203346D
:1003290003F5A0120334DEF8020236790402033918
:10033900758C3C758AB0D28C308DFDC28DD9F12275
:00000001FF
