:020000000130CD
:02000300018674
:0200130001A347
:02000B00015A98
:10003000758160758901758CFF758AF6D2A9C288B1
:10004000C28AD2A8D2AAD2AF751200751100E512E9
:100050007004C28C014ED28C014EC0E0C083C082BD
:10006000758CFF758AF60511E511B46503751100ED
:10007000E511C395125005759080017F759000D0F1
:1000800082D083D0E032C0E011BD20B208E512B4C6
:100090006409751200D0E030B2FD32E5122414F587
:1000A000120195C0E011BD20B305E5120200B5D0E4
:1000B000E030B3FD32E5129414F51201AFC030C048
:1000C000317530AD75311BD531FDD530FAD031D019
:0200D0003022DC
:00000001FF
