:020000000130CD
:0200030001DE1C
:0200130001F4F6
:02000B00019A58
:10003000758160758901758CCF758A2C751201D216
:10004000A9C288C28AD2A8D2AAD2AF7911751000EB
:10005000751100E51090011293F5A0E511B411059A
:100060007580F90170B400057580C001707580BF9E
:1000700020B410C28C7580C075A0C07510007511B9
:10008000000170E5107004C28C0170D28C119101D6
:10009000537E0A7FFADFFEDEFA22C0E0C083C08210
:1000A000758CD8758AF0D5122E20B503751111E51F
:1000B00011B41109E9F59003F9F59001C4E9F5903F
:1000C00023F590F9E51090010A93F51220B5057516
:1000D000111101D77511FED082D083D0E032C0E07B
:1000E000119120B209E510B4070201EE0510D0E02D
:1000F00030B2FD32C0E0119120B309E510B4000226
:1001000021041510D0E030B3FD32003C28231E1C22
:0C0110001915C0F9A4B0999282F88098EB
:00000001FF
