:1006C80048554D49444954593A202000200048557E
:1006D8004D49444954593A202020202020303030B8
:1006E8003030303030303030303030303030303002
:0C06F8003030303030204D4F44453A0087
:07087700010C000218000053
:10084F00D2A9758921758AB0758C3CD28CD2AF2212
:1007FF00758921C28AC2ABD28E758DFD758BFDE4D2
:0D080F00F587C29FD29ED29CD2ACD2AF2200
:040586008E318F32F1
:10058A00E4F533F53478357C00FD7BFF7A0679C8CB
:10059A00FE7F0C120340AE31AF327C007D0A12039B
:1005AA00BBED2430FBAE31AF327C007D0A1203BBB7
:1005BA00EF2430F53E8B3F74352534F8E66011F5AB
:1005CA00993099FDC2990534E53470EB053380E71B
:0105DA0022FE
:0405DB008E248F25B6
:1005DF00E4F526F52778287C00FD7BFF7A0679D491
:1005EF00FE7F02120340AE24AF257C007D0A12036A
:1005FF00BBED2430FBAE24AF257C007D0A1203BB7C
:10060F00EF2430F5288B2974282527F8E66011F59B
:10061F00993099FDC2990527E52770EB052680E7EC
:01062F0022A8
:1007DF00D3EF9400EE94004016E4FDEDC3941B7428
:0F07EF0080948050030D80F3EF1F70E41E80E1B3
:0107FE0022D8
:0C085F00153115311531153115311531E9
:01086B00226A
:0B086C00EF1FAC0670011E4C70F6225E
:10073300EF75F064848DF0A4FDC3EF9DF9E4FBFA3B
:10074300C280EDFF7E0012086CD280E9FF7E0012AA
:0D075300086C0BBB00010ABA01E6BBF5E320
:010760002276
:07081C0012001A7F017E00AB
:10082300EF64014E700A7D637F64120733C2802236
:03083300C280225E
:10063000E4FFEFC3940874809480503F751002204B
:100640008707AE100510EE70F612085F12085F12F1
:10065000085FE4F5143087037514017510023087C4
:1006600007AE100510EE70F6E5106401600DE51B95
:0B06700025E0F51BE514421B0F80B7CE
:01067B00225C
:10050E00C2877FB47E001207DFD28712085F1208FF
:10051E005F12085F12085FD287208759751002207C
:10052E008707AF100510EF70F6751002308707AF12
:10053E00100510EF70F6120630851B171206308567
:10054E001B1A120630851B0E120630851B0F120663
:10055E0030851B13D287E50E250F2517251AF514A6
:10056E00B5130F851715851A16850E0A850F0B857F
:08057E0013127F01227F00220D
:0B076100C282C2838FA012076CD283FB
:10076C007F0FEFD394007480948040127E98EED368
:0E077C0094007480948040031E80F31F80E47C
:01078A00224C
:08000300C281120761C28322D1
:0C000E007FCD1200037F4912001A7F4EC4
:08001A00D281120761C28322AA
:100836007F061200037F0C1200037F381200037F2D
:09084600011200037F810200038E
:10078B0078317C007D007BFF7A0679D67E007F2E48
:10079B0012034074312519F8E6FF600D12001A059B
:0907AB0019E51970EE051880EA49
:0107B4002222
:0F070400B295A295E4FE33FF1208237FF47E0125
:10071300E4FDFCC3ED9FEC9E5015E4FBFA0BBB001C
:0F072300010AEB646E4A70F50DBD00010C80E415
:0107320022A4
:040026008E318F3256
:10002A0075330075340275350075360320902BE45C
:10003A00FFFE1208237F147E00120713209002B2DB
:10004A000BA20B9297300B0DD285D286D296D295FF
:10005A00800320900512081F80F8300B0302017FED
:10006A007FC61200037F4112001A12076CA2B7B3AF
:10007A00500330006E7F147E00120713A2B7B350EC
:10008A0003300056AC33AD34AE31AF321203BBEDA0
:10009A004C600DD285D2867FC47E09120713803A3E
:1000AA0020942220031FD285D286C296E4F511C37A
:1000BA00E511940674809480500712070405118094
:1000CA00EED203801530941212000E7F2012001A0D
:1000DA00C285D286D295C296C2038533318534321F
:1000EA0002026BA2B7B3400302026B3000030202A2
:1000FA006B7F147E00120713A2B7B3400302026B90
:10010A0030000302026BAC35AD36AE31AF321203AA
:10011A00BBED4C600DD285D2867FC47E09120713CF
:10012A00804A209326200323D285D286C295E4F5FD
:10013A0011C3E511940674809480500BB296A2966E
:10014A00120708051180EAD203802130931E7FCD61
:10015A001200037F4F12001A7F5512001A7F5412A1
:10016A00001AD285C286C295D296C20385353185D8
:10017A00363202026B200B0302026B7FC6120003A7
:10018A007F4D12001A20924130933EE4FFFE12087E
:10019A00237F057E001207132092263093237FCDFA
:1001AA001200037F4F12001A7F5512001A7F541251
:1001BA00081CD285B28612081FD296A2869295C2D0
:1001CA000920923D12081F80F8209135309432E4BC
:1001DA00FFFE1208237F057E0012071320911A30B2
:1001EA00941712000E7F2012081CD286B2851208BC
:1001FA001FD295A2859296C20A20910512081F80E5
:10020A00F820932F20092C7F057E001207132093D4
:10021A002220091FD286C295E4F511C3E51194067E
:10022A0074809480500BB296A2961207080511802A
:10023A00EAD20920942B200A287F057E0012071390
:10024A0020941E200A1BD285C296E4F511C3E5113B
:10025A009406748094805007120704051180EED228
:05026A000AAE31AF32C5
:01026F00226C
:1003F100752D00752E0612081FC29712084F12089C
:100401003612050E8F2AC204752B0085152C120792
:100411008BAF2CAE2B120586752F00753001AF2ED8
:10042100AE2D1200268E2D8F2E3004F27F8A1200FF
:100431000312050E8F2AC204752B0085152CAE2BD5
:10044100AF2C7C007D0A120366ED2430FBAE2BAF8E
:100451002C7C007D0A120366EF2430FF12001A7F04
:100461008B120003AF0312001A12076CC3E52C9420
:1004710050E52B94004004D2008002C200D28C804F
:010481009DDD
:03000B000207B534
:0407B500C0E0C0D010
:1007B900758AB0758C3C0523E52370020522C39424
:1007C90014E5229400400AD204752200752300C260
:0107D9008C93
:0507DA00D0D0D0E03298
:0300230002067C56
:10067C00C0E0C0F0C083C082C0D075D000C000C044
:10068C0001C002C003C004C005C006C007309811E9
:10069C0085990DC29874D0250DF50DFF7E001205BD
:1006AC00DBD007D006D005D004D003D002D001D0C7
:0C06BC0000D0D0D082D083D0F0D0E0324B
:0300000002048275
:0C048200787FE4F6D8FD75815E0204C9A5
:10027000E709F608DFFA8046E709F208DFFA803E70
:1002800088828C83E709F0A3DFFA8032E309F6085D
:10029000DFFA8078E309F208DFFA807088828C83C5
:1002A000E309F0A3DFFA806489828A83E0A3F60879
:1002B000DFFA805889828A83E0A3F208DFFA804C53
:1002C00080D280FA80C680D4806980F2803380102A
:1002D00080A680EA809A80A880DA80E280CA803393
:1002E00089828A83ECFAE493A3C8C582C8CCC5830B
:1002F000CCF0A3C8C582C8CCC583CCDFE9DEE780DB
:100300000D89828A83E493A3F608DFF9ECFAA9F059
:10031000EDFB2289828A83ECFAE0A3C8C582C8CCAF
:10032000C583CCF0A3C8C582C8CCC583CCDFEADEC8
:10033000E880DB89828A83E493A3F208DFF980CC2A
:1003400088F0EF60010E4E60C388F0ED2402B40423
:100350000050B9F582EB2402B4040050AF232345CA
:0603600082239002C0732D
:10036600BC000BBE0029EF8DF084FFADF022E4CC7B
:10037600F875F008EF2FFFEE33FEEC33FCEE9DEC44
:10038600984005FCEE9DFE0FD5F0E9E4CEFD22ED8A
:10039600F8F5F0EE8420D21CFEADF075F008EF2FD4
:1003A600FFED33FD4007985006D5F0F222C398FDC5
:0503B6000FD5F0EA2262
:1003BB00C2D5EC30E709B2D5E4C39DFDE49CFCEE5D
:1003CB0030E715B2D5E4C39FFFE49EFE120366C36C
:1003DB00E49DFDE49CFC800312036630D507C3E467
:0603EB009FFFE49EFE22CC
:10048E000203F1E493A3F8E493A34003F68001F290
:10049E0008DFF48029E493A3F85407240CC8C3336F
:1004AE00C4540F4420C8834004F456800146F6DF3E
:1004BE00E4800B0102040810204080900877E47E4F
:1004CE00019360BCA3FF543F30E509541FFEE49333
:1004DE00A360010ECF54C025E060A840B8E493A3FA
:1004EE00FAE493A3F8E493A3C8C582C8CAC583CA25
:1004FE00F0A3C8C582C8CAC583CADFE9DEE780BEDD
:01087E000079
:00000001FF
