:100000007598D0758920758DFD758BFDD28ED29B2C
:100010007401F5993099FDC2993098FDC298E5991F
:10002000B401733098FDC298E599A2D05061C2E73F
:10003000F83098FDC298E599A2D05053C2E7F93044
:1000400098FDC298E599A2D05045C2E7FAD29B74B8
:1000500002F5993099FDC2993098FDC298E599B49E
:1000600002343098FDC298E599A2D05022C2E7FB35
:10007000223098FDC298E599A2D05013C2E7FC2225
:100080003098FDC298E599A2D05004C2E7FD2275D0
:0B00900090F00192C29D75A001019646
:00000001FF
