:100000007598D0758920758DFD758BFDD28ED29037
:10001000C29175A0FED291C2908529A0120198D2FA
:1000200090C29175A0FDD291C2908528A01201982E
:10003000D290C29175A0FBD291C2908526A0D2A782
:10004000120198D290C29175A0F7D291C2908527E3
:10005000A0120198D290C29175A0EFD291C2908562
:1000600032A0120198D290C29175A0DFD291C290B5
:100070008530A0120198D290C29175A0BFD291C2D2
:10008000908533A0D2A7120198D290C29175A07F1B
:10009000D291C2908531A012019820980602000EDC
:1000A0000200A5C298D29B7401F5993099FDC299BE
:1000B0003098FDC298E599B401028003020118301E
:1000C00098FDC298E599A2D05051C2E7F528D29B7D
:1000D0007401F5993099FDC2993098FDC298E5995F
:1000E000B401353098FDC298E599A2D0502DC2E7F1
:1000F000F527D29B7401F5993099FDC2993098FD8E
:10010000C298E599B401113098FDC298E599A2D042
:100110005009C2E7F529211E0201CB0201D0D29B72
:100120007400F5993099FDC2993098FDC298E5990F
:10013000B4008980030201A13098FDC298E599A21C
:10014000D05061C2E7F530D29B7400F5993099FD2B
:10015000C2993098FDC298E599B400453098FDC227
:010160009806
:10016100E599A2D0503DC2E7F531D29B7400F599D3
:100171003099FDC2993098FDC298E599B4002130BB
:1001810098FDC298E599A2D05019C2E7F532120143
:10019100A71201B902000E7864790AD9FED8FA22B1
:1001A1000201CB0201D0E52875F00A84901000937A
:1001B100F528E5F093F52622E53075F00A849010D4
:1001C1000093F530E5F093F5332275A00F21CB753F
:0601D10090F021D3C29D55
:0A1000003F065B4F666D7D077F6FB2
:00000001FF
