:020000002100DD
:1001000012010F12012A12013812019C0201DAD2E7
:10011000B400C2B478FBD8FED2B4782530B402D88B
:10012000FBD2D5787FD8FED2B42212010F74CC1244
:100130000160743F12016022D2B412010F20D50178
:100140002274CC12016074441201607BFFDBFE124A
:10015000010F74CC12016074BE1201601201792289
:100160007A08C3C2B47B05DBFE1392B47B19DBFEB5
:10017000D2B40000DAEDD2B4227C0279297A08C325
:10018000D30000C2B4000000D2B47B07DBFEA2B4EF
:100190007B2DDBFE13DAE8F719DCE222E52985295D
:1001A00026852825852824A22F5014E525F4F52539
:1001B000E526F404F526852629852528753001A233
:1001C0004013A24113A24213A24313400575270016
:1001D00021D5752705F529F590227598F0758920A8
:1001E000758DFD758BFDD28E3098FDC298E599B462
:1001F00001F6C29DD29B7599013099FDC299E529FE
:10020000F5A0A2D0B392E7C29BF5993099FDC299AF
:10021000C2E73098FDC298E599B401F6C29DD29B21
:100220007599013099FDC299E527F5A0A2D0B39246
:01023000E7E6
:10023100C29BF5993099FDC299C2E73098FDC298E9
:10024100E599B401F6C29DD29B7599013099FDC221
:1002510099E530F5A0A2D0B392E7C29BF599309908
:08026100FDC299C2E702010091
:00000001FF
